{
  "address": "0x5FbDB2315678afecb367f032d93F642f64180aa3",
  "abi": [
    {
      "inputs": [],
      "stateMutability": "nonpayable",
      "type": "constructor"
    },
    {
      "anonymous": false,
      "inputs": [
        {
          "indexed": true,
          "internalType": "address",
          "name": "owner",
          "type": "address"
        },
        {
          "indexed": true,
          "internalType": "address",
          "name": "approved",
          "type": "address"
        },
        {
          "indexed": true,
          "internalType": "uint256",
          "name": "tokenId",
          "type": "uint256"
        }
      ],
      "name": "Approval",
      "type": "event"
    },
    {
      "anonymous": false,
      "inputs": [
        {
          "indexed": true,
          "internalType": "address",
          "name": "owner",
          "type": "address"
        },
        {
          "indexed": true,
          "internalType": "address",
          "name": "operator",
          "type": "address"
        },
        {
          "indexed": false,
          "internalType": "bool",
          "name": "approved",
          "type": "bool"
        }
      ],
      "name": "ApprovalForAll",
      "type": "event"
    },
    {
      "anonymous": false,
      "inputs": [
        {
          "indexed": true,
          "internalType": "uint256",
          "name": "tokenId",
          "type": "uint256"
        },
        {
          "indexed": false,
          "internalType": "address",
          "name": "seller",
          "type": "address"
        },
        {
          "indexed": false,
          "internalType": "address",
          "name": "owner",
          "type": "address"
        },
        {
          "indexed": false,
          "internalType": "uint256",
          "name": "price",
          "type": "uint256"
        },
        {
          "indexed": false,
          "internalType": "bool",
          "name": "sold",
          "type": "bool"
        }
      ],
      "name": "MarketItemCreated",
      "type": "event"
    },
    {
      "anonymous": false,
      "inputs": [
        {
          "indexed": true,
          "internalType": "address",
          "name": "from",
          "type": "address"
        },
        {
          "indexed": true,
          "internalType": "address",
          "name": "to",
          "type": "address"
        },
        {
          "indexed": true,
          "internalType": "uint256",
          "name": "tokenId",
          "type": "uint256"
        }
      ],
      "name": "Transfer",
      "type": "event"
    },
    {
      "inputs": [
        {
          "internalType": "address",
          "name": "to",
          "type": "address"
        },
        {
          "internalType": "uint256",
          "name": "tokenId",
          "type": "uint256"
        }
      ],
      "name": "approve",
      "outputs": [],
      "stateMutability": "nonpayable",
      "type": "function"
    },
    {
      "inputs": [
        {
          "internalType": "address",
          "name": "owner",
          "type": "address"
        }
      ],
      "name": "balanceOf",
      "outputs": [
        {
          "internalType": "uint256",
          "name": "",
          "type": "uint256"
        }
      ],
      "stateMutability": "view",
      "type": "function"
    },
    {
      "inputs": [
        {
          "internalType": "uint256",
          "name": "tokenId",
          "type": "uint256"
        }
      ],
      "name": "createMarketSale",
      "outputs": [],
      "stateMutability": "payable",
      "type": "function"
    },
    {
      "inputs": [
        {
          "internalType": "string",
          "name": "tokenURI",
          "type": "string"
        },
        {
          "internalType": "uint256",
          "name": "price",
          "type": "uint256"
        }
      ],
      "name": "createToken",
      "outputs": [
        {
          "internalType": "uint256",
          "name": "",
          "type": "uint256"
        }
      ],
      "stateMutability": "payable",
      "type": "function"
    },
    {
      "inputs": [],
      "name": "fetchItemsListed",
      "outputs": [
        {
          "components": [
            {
              "internalType": "uint256",
              "name": "tokenId",
              "type": "uint256"
            },
            {
              "internalType": "address payable",
              "name": "seller",
              "type": "address"
            },
            {
              "internalType": "address payable",
              "name": "owner",
              "type": "address"
            },
            {
              "internalType": "uint256",
              "name": "price",
              "type": "uint256"
            },
            {
              "internalType": "bool",
              "name": "sold",
              "type": "bool"
            }
          ],
          "internalType": "struct NFTMarketplace.MarketItem[]",
          "name": "",
          "type": "tuple[]"
        }
      ],
      "stateMutability": "view",
      "type": "function"
    },
    {
      "inputs": [],
      "name": "fetchMarketItems",
      "outputs": [
        {
          "components": [
            {
              "internalType": "uint256",
              "name": "tokenId",
              "type": "uint256"
            },
            {
              "internalType": "address payable",
              "name": "seller",
              "type": "address"
            },
            {
              "internalType": "address payable",
              "name": "owner",
              "type": "address"
            },
            {
              "internalType": "uint256",
              "name": "price",
              "type": "uint256"
            },
            {
              "internalType": "bool",
              "name": "sold",
              "type": "bool"
            }
          ],
          "internalType": "struct NFTMarketplace.MarketItem[]",
          "name": "",
          "type": "tuple[]"
        }
      ],
      "stateMutability": "view",
      "type": "function"
    },
    {
      "inputs": [],
      "name": "fetchMyNFTs",
      "outputs": [
        {
          "components": [
            {
              "internalType": "uint256",
              "name": "tokenId",
              "type": "uint256"
            },
            {
              "internalType": "address payable",
              "name": "seller",
              "type": "address"
            },
            {
              "internalType": "address payable",
              "name": "owner",
              "type": "address"
            },
            {
              "internalType": "uint256",
              "name": "price",
              "type": "uint256"
            },
            {
              "internalType": "bool",
              "name": "sold",
              "type": "bool"
            }
          ],
          "internalType": "struct NFTMarketplace.MarketItem[]",
          "name": "",
          "type": "tuple[]"
        }
      ],
      "stateMutability": "view",
      "type": "function"
    },
    {
      "inputs": [
        {
          "internalType": "uint256",
          "name": "tokenId",
          "type": "uint256"
        }
      ],
      "name": "getApproved",
      "outputs": [
        {
          "internalType": "address",
          "name": "",
          "type": "address"
        }
      ],
      "stateMutability": "view",
      "type": "function"
    },
    {
      "inputs": [],
      "name": "getListingPrice",
      "outputs": [
        {
          "internalType": "uint256",
          "name": "",
          "type": "uint256"
        }
      ],
      "stateMutability": "view",
      "type": "function"
    },
    {
      "inputs": [
        {
          "internalType": "address",
          "name": "owner",
          "type": "address"
        },
        {
          "internalType": "address",
          "name": "operator",
          "type": "address"
        }
      ],
      "name": "isApprovedForAll",
      "outputs": [
        {
          "internalType": "bool",
          "name": "",
          "type": "bool"
        }
      ],
      "stateMutability": "view",
      "type": "function"
    },
    {
      "inputs": [],
      "name": "name",
      "outputs": [
        {
          "internalType": "string",
          "name": "",
          "type": "string"
        }
      ],
      "stateMutability": "view",
      "type": "function"
    },
    {
      "inputs": [
        {
          "internalType": "uint256",
          "name": "tokenId",
          "type": "uint256"
        }
      ],
      "name": "ownerOf",
      "outputs": [
        {
          "internalType": "address",
          "name": "",
          "type": "address"
        }
      ],
      "stateMutability": "view",
      "type": "function"
    },
    {
      "inputs": [
        {
          "internalType": "uint256",
          "name": "tokenId",
          "type": "uint256"
        },
        {
          "internalType": "uint256",
          "name": "price",
          "type": "uint256"
        }
      ],
      "name": "resellToken",
      "outputs": [],
      "stateMutability": "payable",
      "type": "function"
    },
    {
      "inputs": [
        {
          "internalType": "address",
          "name": "from",
          "type": "address"
        },
        {
          "internalType": "address",
          "name": "to",
          "type": "address"
        },
        {
          "internalType": "uint256",
          "name": "tokenId",
          "type": "uint256"
        }
      ],
      "name": "safeTransferFrom",
      "outputs": [],
      "stateMutability": "nonpayable",
      "type": "function"
    },
    {
      "inputs": [
        {
          "internalType": "address",
          "name": "from",
          "type": "address"
        },
        {
          "internalType": "address",
          "name": "to",
          "type": "address"
        },
        {
          "internalType": "uint256",
          "name": "tokenId",
          "type": "uint256"
        },
        {
          "internalType": "bytes",
          "name": "_data",
          "type": "bytes"
        }
      ],
      "name": "safeTransferFrom",
      "outputs": [],
      "stateMutability": "nonpayable",
      "type": "function"
    },
    {
      "inputs": [
        {
          "internalType": "address",
          "name": "operator",
          "type": "address"
        },
        {
          "internalType": "bool",
          "name": "approved",
          "type": "bool"
        }
      ],
      "name": "setApprovalForAll",
      "outputs": [],
      "stateMutability": "nonpayable",
      "type": "function"
    },
    {
      "inputs": [
        {
          "internalType": "bytes4",
          "name": "interfaceId",
          "type": "bytes4"
        }
      ],
      "name": "supportsInterface",
      "outputs": [
        {
          "internalType": "bool",
          "name": "",
          "type": "bool"
        }
      ],
      "stateMutability": "view",
      "type": "function"
    },
    {
      "inputs": [],
      "name": "symbol",
      "outputs": [
        {
          "internalType": "string",
          "name": "",
          "type": "string"
        }
      ],
      "stateMutability": "view",
      "type": "function"
    },
    {
      "inputs": [
        {
          "internalType": "uint256",
          "name": "tokenId",
          "type": "uint256"
        }
      ],
      "name": "tokenURI",
      "outputs": [
        {
          "internalType": "string",
          "name": "",
          "type": "string"
        }
      ],
      "stateMutability": "view",
      "type": "function"
    },
    {
      "inputs": [
        {
          "internalType": "address",
          "name": "from",
          "type": "address"
        },
        {
          "internalType": "address",
          "name": "to",
          "type": "address"
        },
        {
          "internalType": "uint256",
          "name": "tokenId",
          "type": "uint256"
        }
      ],
      "name": "transferFrom",
      "outputs": [],
      "stateMutability": "nonpayable",
      "type": "function"
    },
    {
      "inputs": [
        {
          "internalType": "uint256",
          "name": "_listingPrice",
          "type": "uint256"
        }
      ],
      "name": "updateListingPrice",
      "outputs": [],
      "stateMutability": "payable",
      "type": "function"
    }
  ],
  "transactionHash": "0x991a9922b46dbd200ca47c37dadbf10e35f73cc79b4858097b1da71f8d84b44d",
  "args": [],
  "numDeployments": 1,
  "solcInputHash": "c9ad5bbacf2b34ddc4bcadea33cf83f9",
  "bytecode": "0x60806040526658d15e176280006009553480156200001c57600080fd5b506040518060400160405280601081526020017f4d657461766572736520546f6b656e73000000000000000000000000000000008152506040518060400160405280600481526020017f4d455454000000000000000000000000000000000000000000000000000000008152508160009080519060200190620000a192919062000104565b508060019080519060200190620000ba92919062000104565b50505033600a60006101000a81548173ffffffffffffffffffffffffffffffffffffffff021916908373ffffffffffffffffffffffffffffffffffffffff16021790555062000219565b8280546200011290620001b4565b90600052602060002090601f01602090048101928262000136576000855562000182565b82601f106200015157805160ff191683800117855562000182565b8280016001018555821562000182579182015b828111156200018157825182559160200191906001019062000164565b5b50905062000191919062000195565b5090565b5b80821115620001b057600081600090555060010162000196565b5090565b60006002820490506001821680620001cd57607f821691505b60208210811415620001e457620001e3620001ea565b5b50919050565b7f4e487b7100000000000000000000000000000000000000000000000000000000600052602260045260246000fd5b61435c80620002296000396000f3fe60806040526004361061012a5760003560e01c80636352211e116100ab578063ae677aa31161006f578063ae677aa3146103f9578063b88d4fde14610415578063be9af5361461043e578063c87b56dd1461045a578063e219fc7514610497578063e985e9c5146104b35761012a565b80636352211e146102fb57806370a082311461033857806372b3b6201461037557806395d89b41146103a5578063a22cb465146103d05761012a565b806312e85585116100f257806312e8558514610228578063202e37401461025357806323b872dd1461027e57806342842e0e146102a757806345f8fa80146102d05761012a565b806301ffc9a71461012f57806306fdde031461016c578063081812fc14610197578063095ea7b3146101d45780630f08efe0146101fd575b600080fd5b34801561013b57600080fd5b5061015660048036038101906101519190612e9c565b6104f0565b6040516101639190613576565b60405180910390f35b34801561017857600080fd5b506101816105d2565b60405161018e9190613591565b60405180910390f35b3480156101a357600080fd5b506101be60048036038101906101b99190612f42565b610664565b6040516101cb91906134a8565b60405180910390f35b3480156101e057600080fd5b506101fb60048036038101906101f69190612e60565b6106e9565b005b34801561020957600080fd5b50610212610801565b60405161021f9190613554565b60405180910390f35b34801561023457600080fd5b5061023d610ab6565b60405161024a9190613873565b60405180910390f35b34801561025f57600080fd5b50610268610ac0565b6040516102759190613554565b60405180910390f35b34801561028a57600080fd5b506102a560048036038101906102a09190612d5a565b610dfa565b005b3480156102b357600080fd5b506102ce60048036038101906102c99190612d5a565b610e5a565b005b3480156102dc57600080fd5b506102e5610e7a565b6040516102f29190613554565b60405180910390f35b34801561030757600080fd5b50610322600480360381019061031d9190612f42565b6111b4565b60405161032f91906134a8565b60405180910390f35b34801561034457600080fd5b5061035f600480360381019061035a9190612cf5565b611266565b60405161036c9190613873565b60405180910390f35b61038f600480360381019061038a9190612eee565b61131e565b60405161039c9190613873565b60405180910390f35b3480156103b157600080fd5b506103ba611360565b6040516103c79190613591565b60405180910390f35b3480156103dc57600080fd5b506103f760048036038101906103f29190612e24565b6113f2565b005b610413600480360381019061040e9190612f42565b611408565b005b34801561042157600080fd5b5061043c60048036038101906104379190612da9565b6114a2565b005b61045860048036038101906104539190612f42565b611504565b005b34801561046657600080fd5b50610481600480360381019061047c9190612f42565b61173c565b60405161048e9190613591565b60405180910390f35b6104b160048036038101906104ac9190612f6b565b61188e565b005b3480156104bf57600080fd5b506104da60048036038101906104d59190612d1e565b611a83565b6040516104e79190613576565b60405180910390f35b60007f80ac58cd000000000000000000000000000000000000000000000000000000007bffffffffffffffffffffffffffffffffffffffffffffffffffffffff1916827bffffffffffffffffffffffffffffffffffffffffffffffffffffffff191614806105bb57507f5b5e139f000000000000000000000000000000000000000000000000000000007bffffffffffffffffffffffffffffffffffffffffffffffffffffffff1916827bffffffffffffffffffffffffffffffffffffffffffffffffffffffff1916145b806105cb57506105ca82611b17565b5b9050919050565b6060600080546105e190613b14565b80601f016020809104026020016040519081016040528092919081815260200182805461060d90613b14565b801561065a5780601f1061062f5761010080835404028352916020019161065a565b820191906000526020600020905b81548152906001019060200180831161063d57829003601f168201915b5050505050905090565b600061066f82611b81565b6106ae576040517f08c379a00000000000000000000000000000000000000000000000000000000081526004016106a590613793565b60405180910390fd5b6004600083815260200190815260200160002060009054906101000a900473ffffffffffffffffffffffffffffffffffffffff169050919050565b60006106f4826111b4565b90508073ffffffffffffffffffffffffffffffffffffffff168373ffffffffffffffffffffffffffffffffffffffff161415610765576040517f08c379a000000000000000000000000000000000000000000000000000000000815260040161075c906137d3565b60405180910390fd5b8073ffffffffffffffffffffffffffffffffffffffff16610784611bed565b73ffffffffffffffffffffffffffffffffffffffff1614806107b357506107b2816107ad611bed565b611a83565b5b6107f2576040517f08c379a00000000000000000000000000000000000000000000000000000000081526004016107e9906136d3565b60405180910390fd5b6107fc8383611bf5565b505050565b6060600061080f6007611cae565b9050600061081d6008611cae565b6108276007611cae565b6108319190613a18565b90506000808267ffffffffffffffff811115610876577f4e487b7100000000000000000000000000000000000000000000000000000000600052604160045260246000fd5b6040519080825280602002602001820160405280156108af57816020015b61089c612abc565b8152602001906001900390816108945790505b50905060005b84811015610aab573073ffffffffffffffffffffffffffffffffffffffff16600b60006001846108e59190613991565b815260200190815260200160002060020160009054906101000a900473ffffffffffffffffffffffffffffffffffffffff1673ffffffffffffffffffffffffffffffffffffffff161415610a985760006001826109429190613991565b90506000600b60008381526020019081526020016000209050806040518060a0016040529081600082015481526020016001820160009054906101000a900473ffffffffffffffffffffffffffffffffffffffff1673ffffffffffffffffffffffffffffffffffffffff1673ffffffffffffffffffffffffffffffffffffffff1681526020016002820160009054906101000a900473ffffffffffffffffffffffffffffffffffffffff1673ffffffffffffffffffffffffffffffffffffffff1673ffffffffffffffffffffffffffffffffffffffff168152602001600382015481526020016004820160009054906101000a900460ff161515151581525050848681518110610a7b577f4e487b7100000000000000000000000000000000000000000000000000000000600052603260045260246000fd5b6020026020010181905250600185610a939190613991565b945050505b8080610aa390613b77565b9150506108b5565b508094505050505090565b6000600954905090565b60606000610ace6007611cae565b905060008060005b83811015610b77573373ffffffffffffffffffffffffffffffffffffffff16600b6000600184610b069190613991565b815260200190815260200160002060020160009054906101000a900473ffffffffffffffffffffffffffffffffffffffff1673ffffffffffffffffffffffffffffffffffffffff161415610b6457600183610b619190613991565b92505b8080610b6f90613b77565b915050610ad6565b5060008267ffffffffffffffff811115610bba577f4e487b7100000000000000000000000000000000000000000000000000000000600052604160045260246000fd5b604051908082528060200260200182016040528015610bf357816020015b610be0612abc565b815260200190600190039081610bd85790505b50905060005b84811015610def573373ffffffffffffffffffffffffffffffffffffffff16600b6000600184610c299190613991565b815260200190815260200160002060020160009054906101000a900473ffffffffffffffffffffffffffffffffffffffff1673ffffffffffffffffffffffffffffffffffffffff161415610ddc576000600182610c869190613991565b90506000600b60008381526020019081526020016000209050806040518060a0016040529081600082015481526020016001820160009054906101000a900473ffffffffffffffffffffffffffffffffffffffff1673ffffffffffffffffffffffffffffffffffffffff1673ffffffffffffffffffffffffffffffffffffffff1681526020016002820160009054906101000a900473ffffffffffffffffffffffffffffffffffffffff1673ffffffffffffffffffffffffffffffffffffffff1673ffffffffffffffffffffffffffffffffffffffff168152602001600382015481526020016004820160009054906101000a900460ff161515151581525050848381518110610dbf577f4e487b7100000000000000000000000000000000000000000000000000000000600052603260045260246000fd5b6020026020010181905250600185610dd79190613991565b945050505b8080610de790613b77565b915050610bf9565b508094505050505090565b610e0b610e05611bed565b82611cbc565b610e4a576040517f08c379a0000000000000000000000000000000000000000000000000000000008152600401610e4190613833565b60405180910390fd5b610e55838383611d9a565b505050565b610e75838383604051806020016040528060008152506114a2565b505050565b60606000610e886007611cae565b905060008060005b83811015610f31573373ffffffffffffffffffffffffffffffffffffffff16600b6000600184610ec09190613991565b815260200190815260200160002060010160009054906101000a900473ffffffffffffffffffffffffffffffffffffffff1673ffffffffffffffffffffffffffffffffffffffff161415610f1e57600183610f1b9190613991565b92505b8080610f2990613b77565b915050610e90565b5060008267ffffffffffffffff811115610f74577f4e487b7100000000000000000000000000000000000000000000000000000000600052604160045260246000fd5b604051908082528060200260200182016040528015610fad57816020015b610f9a612abc565b815260200190600190039081610f925790505b50905060005b848110156111a9573373ffffffffffffffffffffffffffffffffffffffff16600b6000600184610fe39190613991565b815260200190815260200160002060010160009054906101000a900473ffffffffffffffffffffffffffffffffffffffff1673ffffffffffffffffffffffffffffffffffffffff1614156111965760006001826110409190613991565b90506000600b60008381526020019081526020016000209050806040518060a0016040529081600082015481526020016001820160009054906101000a900473ffffffffffffffffffffffffffffffffffffffff1673ffffffffffffffffffffffffffffffffffffffff1673ffffffffffffffffffffffffffffffffffffffff1681526020016002820160009054906101000a900473ffffffffffffffffffffffffffffffffffffffff1673ffffffffffffffffffffffffffffffffffffffff1673ffffffffffffffffffffffffffffffffffffffff168152602001600382015481526020016004820160009054906101000a900460ff161515151581525050848381518110611179577f4e487b7100000000000000000000000000000000000000000000000000000000600052603260045260246000fd5b60200260200101819052506001856111919190613991565b945050505b80806111a190613b77565b915050610fb3565b508094505050505090565b6000806002600084815260200190815260200160002060009054906101000a900473ffffffffffffffffffffffffffffffffffffffff169050600073ffffffffffffffffffffffffffffffffffffffff168173ffffffffffffffffffffffffffffffffffffffff16141561125d576040517f08c379a000000000000000000000000000000000000000000000000000000000815260040161125490613713565b60405180910390fd5b80915050919050565b60008073ffffffffffffffffffffffffffffffffffffffff168273ffffffffffffffffffffffffffffffffffffffff1614156112d7576040517f08c379a00000000000000000000000000000000000000000000000000000000081526004016112ce906136f3565b60405180910390fd5b600360008373ffffffffffffffffffffffffffffffffffffffff1673ffffffffffffffffffffffffffffffffffffffff168152602001908152602001600020549050919050565b600061132a6007612001565b60006113366007611cae565b90506113423382612017565b61134c81856121f1565b6113568184612265565b8091505092915050565b60606001805461136f90613b14565b80601f016020809104026020016040519081016040528092919081815260200182805461139b90613b14565b80156113e85780601f106113bd576101008083540402835291602001916113e8565b820191906000526020600020905b8154815290600101906020018083116113cb57829003601f168201915b5050505050905090565b6114046113fd611bed565b8383612468565b5050565b3373ffffffffffffffffffffffffffffffffffffffff16600a60009054906101000a900473ffffffffffffffffffffffffffffffffffffffff1673ffffffffffffffffffffffffffffffffffffffff1614611498576040517f08c379a000000000000000000000000000000000000000000000000000000000815260040161148f90613613565b60405180910390fd5b8060098190555050565b6114b36114ad611bed565b83611cbc565b6114f2576040517f08c379a00000000000000000000000000000000000000000000000000000000081526004016114e990613833565b60405180910390fd5b6114fe848484846125d5565b50505050565b6000600b6000838152602001908152602001600020600301549050803414611561576040517f08c379a0000000000000000000000000000000000000000000000000000000008152600401611558906136b3565b60405180910390fd5b6001600b600084815260200190815260200160002060040160006101000a81548160ff0219169083151502179055506000600b600084815260200190815260200160002060010160006101000a81548173ffffffffffffffffffffffffffffffffffffffff021916908373ffffffffffffffffffffffffffffffffffffffff16021790555033600b600084815260200190815260200160002060020160006101000a81548173ffffffffffffffffffffffffffffffffffffffff021916908373ffffffffffffffffffffffffffffffffffffffff1602179055506116456008612001565b611650303384611d9a565b600a60009054906101000a900473ffffffffffffffffffffffffffffffffffffffff1673ffffffffffffffffffffffffffffffffffffffff166108fc6009549081150290604051600060405180830381858888f193505050501580156116ba573d6000803e3d6000fd5b50600b600083815260200190815260200160002060010160009054906101000a900473ffffffffffffffffffffffffffffffffffffffff1673ffffffffffffffffffffffffffffffffffffffff166108fc349081150290604051600060405180830381858888f19350505050158015611737573d6000803e3d6000fd5b505050565b606061174782611b81565b611786576040517f08c379a000000000000000000000000000000000000000000000000000000000815260040161177d90613773565b60405180910390fd5b60006006600084815260200190815260200160002080546117a690613b14565b80601f01602080910402602001604051908101604052809291908181526020018280546117d290613b14565b801561181f5780601f106117f45761010080835404028352916020019161181f565b820191906000526020600020905b81548152906001019060200180831161180257829003601f168201915b505050505090506000611830612631565b9050600081511415611846578192505050611889565b60008251111561187b578082604051602001611863929190613484565b60405160208183030381529060405292505050611889565b61188484612648565b925050505b919050565b3373ffffffffffffffffffffffffffffffffffffffff16600b600084815260200190815260200160002060020160009054906101000a900473ffffffffffffffffffffffffffffffffffffffff1673ffffffffffffffffffffffffffffffffffffffff1614611932576040517f08c379a000000000000000000000000000000000000000000000000000000000815260040161192990613853565b60405180910390fd5b6009543414611976576040517f08c379a000000000000000000000000000000000000000000000000000000000815260040161196d90613813565b60405180910390fd5b6000600b600084815260200190815260200160002060040160006101000a81548160ff02191690831515021790555080600b60008481526020019081526020016000206003018190555033600b600084815260200190815260200160002060010160006101000a81548173ffffffffffffffffffffffffffffffffffffffff021916908373ffffffffffffffffffffffffffffffffffffffff16021790555030600b600084815260200190815260200160002060020160006101000a81548173ffffffffffffffffffffffffffffffffffffffff021916908373ffffffffffffffffffffffffffffffffffffffff160217905550611a7460086126ef565b611a7f333084611d9a565b5050565b6000600560008473ffffffffffffffffffffffffffffffffffffffff1673ffffffffffffffffffffffffffffffffffffffff16815260200190815260200160002060008373ffffffffffffffffffffffffffffffffffffffff1673ffffffffffffffffffffffffffffffffffffffff16815260200190815260200160002060009054906101000a900460ff16905092915050565b60007f01ffc9a7000000000000000000000000000000000000000000000000000000007bffffffffffffffffffffffffffffffffffffffffffffffffffffffff1916827bffffffffffffffffffffffffffffffffffffffffffffffffffffffff1916149050919050565b60008073ffffffffffffffffffffffffffffffffffffffff166002600084815260200190815260200160002060009054906101000a900473ffffffffffffffffffffffffffffffffffffffff1673ffffffffffffffffffffffffffffffffffffffff1614159050919050565b600033905090565b816004600083815260200190815260200160002060006101000a81548173ffffffffffffffffffffffffffffffffffffffff021916908373ffffffffffffffffffffffffffffffffffffffff160217905550808273ffffffffffffffffffffffffffffffffffffffff16611c68836111b4565b73ffffffffffffffffffffffffffffffffffffffff167f8c5be1e5ebec7d5bd14f71427d1e84f3dd0314c0f7b2291e5b200ac8c7c3b92560405160405180910390a45050565b600081600001549050919050565b6000611cc782611b81565b611d06576040517f08c379a0000000000000000000000000000000000000000000000000000000008152600401611cfd90613693565b60405180910390fd5b6000611d11836111b4565b90508073ffffffffffffffffffffffffffffffffffffffff168473ffffffffffffffffffffffffffffffffffffffff161480611d8057508373ffffffffffffffffffffffffffffffffffffffff16611d6884610664565b73ffffffffffffffffffffffffffffffffffffffff16145b80611d915750611d908185611a83565b5b91505092915050565b8273ffffffffffffffffffffffffffffffffffffffff16611dba826111b4565b73ffffffffffffffffffffffffffffffffffffffff1614611e10576040517f08c379a0000000000000000000000000000000000000000000000000000000008152600401611e07906135f3565b60405180910390fd5b600073ffffffffffffffffffffffffffffffffffffffff168273ffffffffffffffffffffffffffffffffffffffff161415611e80576040517f08c379a0000000000000000000000000000000000000000000000000000000008152600401611e7790613653565b60405180910390fd5b611e8b83838361274b565b611e96600082611bf5565b6001600360008573ffffffffffffffffffffffffffffffffffffffff1673ffffffffffffffffffffffffffffffffffffffff1681526020019081526020016000206000828254611ee69190613a18565b925050819055506001600360008473ffffffffffffffffffffffffffffffffffffffff1673ffffffffffffffffffffffffffffffffffffffff1681526020019081526020016000206000828254611f3d9190613991565b92505081905550816002600083815260200190815260200160002060006101000a81548173ffffffffffffffffffffffffffffffffffffffff021916908373ffffffffffffffffffffffffffffffffffffffff160217905550808273ffffffffffffffffffffffffffffffffffffffff168473ffffffffffffffffffffffffffffffffffffffff167fddf252ad1be2c89b69c2b068fc378daa952ba7f163c4a11628f55a4df523b3ef60405160405180910390a4611ffc838383612750565b505050565b6001816000016000828254019250508190555050565b600073ffffffffffffffffffffffffffffffffffffffff168273ffffffffffffffffffffffffffffffffffffffff161415612087576040517f08c379a000000000000000000000000000000000000000000000000000000000815260040161207e90613753565b60405180910390fd5b61209081611b81565b156120d0576040517f08c379a00000000000000000000000000000000000000000000000000000000081526004016120c790613633565b60405180910390fd5b6120dc6000838361274b565b6001600360008473ffffffffffffffffffffffffffffffffffffffff1673ffffffffffffffffffffffffffffffffffffffff168152602001908152602001600020600082825461212c9190613991565b92505081905550816002600083815260200190815260200160002060006101000a81548173ffffffffffffffffffffffffffffffffffffffff021916908373ffffffffffffffffffffffffffffffffffffffff160217905550808273ffffffffffffffffffffffffffffffffffffffff16600073ffffffffffffffffffffffffffffffffffffffff167fddf252ad1be2c89b69c2b068fc378daa952ba7f163c4a11628f55a4df523b3ef60405160405180910390a46121ed60008383612750565b5050565b6121fa82611b81565b612239576040517f08c379a000000000000000000000000000000000000000000000000000000000815260040161223090613733565b60405180910390fd5b80600660008481526020019081526020016000209080519060200190612260929190612b19565b505050565b600081116122a8576040517f08c379a000000000000000000000000000000000000000000000000000000000815260040161229f906137f3565b60405180910390fd5b60095434146122ec576040517f08c379a00000000000000000000000000000000000000000000000000000000081526004016122e390613813565b60405180910390fd5b6040518060a001604052808381526020013373ffffffffffffffffffffffffffffffffffffffff1681526020013073ffffffffffffffffffffffffffffffffffffffff16815260200182815260200160001515815250600b60008481526020019081526020016000206000820151816000015560208201518160010160006101000a81548173ffffffffffffffffffffffffffffffffffffffff021916908373ffffffffffffffffffffffffffffffffffffffff16021790555060408201518160020160006101000a81548173ffffffffffffffffffffffffffffffffffffffff021916908373ffffffffffffffffffffffffffffffffffffffff1602179055506060820151816003015560808201518160040160006101000a81548160ff021916908315150217905550905050612425333084611d9a565b817fb640004f1d14576d0c209e240cad0410e0d8c0c33a09375861fbadae2588a98d333084600060405161245c94939291906134c3565b60405180910390a25050565b8173ffffffffffffffffffffffffffffffffffffffff168373ffffffffffffffffffffffffffffffffffffffff1614156124d7576040517f08c379a00000000000000000000000000000000000000000000000000000000081526004016124ce90613673565b60405180910390fd5b80600560008573ffffffffffffffffffffffffffffffffffffffff1673ffffffffffffffffffffffffffffffffffffffff16815260200190815260200160002060008473ffffffffffffffffffffffffffffffffffffffff1673ffffffffffffffffffffffffffffffffffffffff16815260200190815260200160002060006101000a81548160ff0219169083151502179055508173ffffffffffffffffffffffffffffffffffffffff168373ffffffffffffffffffffffffffffffffffffffff167f17307eab39ab6107e8899845ad3d59bd9653f200f220920489ca2b5937696c31836040516125c89190613576565b60405180910390a3505050565b6125e0848484611d9a565b6125ec84848484612755565b61262b576040517f08c379a0000000000000000000000000000000000000000000000000000000008152600401612622906135d3565b60405180910390fd5b50505050565b606060405180602001604052806000815250905090565b606061265382611b81565b612692576040517f08c379a0000000000000000000000000000000000000000000000000000000008152600401612689906137b3565b60405180910390fd5b600061269c612631565b905060008151116126bc57604051806020016040528060008152506126e7565b806126c6846128ec565b6040516020016126d7929190613484565b6040516020818303038152906040525b915050919050565b6000816000015490506000811161273b576040517f08c379a0000000000000000000000000000000000000000000000000000000008152600401612732906135b3565b60405180910390fd5b6001810382600001819055505050565b505050565b505050565b60006127768473ffffffffffffffffffffffffffffffffffffffff16612a99565b156128df578373ffffffffffffffffffffffffffffffffffffffff1663150b7a0261279f611bed565b8786866040518563ffffffff1660e01b81526004016127c19493929190613508565b602060405180830381600087803b1580156127db57600080fd5b505af192505050801561280c57506040513d601f19601f820116820180604052508101906128099190612ec5565b60015b61288f573d806000811461283c576040519150601f19603f3d011682016040523d82523d6000602084013e612841565b606091505b50600081511415612887576040517f08c379a000000000000000000000000000000000000000000000000000000000815260040161287e906135d3565b60405180910390fd5b805181602001fd5b63150b7a0260e01b7bffffffffffffffffffffffffffffffffffffffffffffffffffffffff1916817bffffffffffffffffffffffffffffffffffffffffffffffffffffffff1916149150506128e4565b600190505b949350505050565b60606000821415612934576040518060400160405280600181526020017f30000000000000000000000000000000000000000000000000000000000000008152509050612a94565b600082905060005b6000821461296657808061294f90613b77565b915050600a8261295f91906139e7565b915061293c565b60008167ffffffffffffffff8111156129a8577f4e487b7100000000000000000000000000000000000000000000000000000000600052604160045260246000fd5b6040519080825280601f01601f1916602001820160405280156129da5781602001600182028036833780820191505090505b5090505b60008514612a8d576001826129f39190613a18565b9150600a85612a029190613bc0565b6030612a0e9190613991565b60f81b818381518110612a4a577f4e487b7100000000000000000000000000000000000000000000000000000000600052603260045260246000fd5b60200101907effffffffffffffffffffffffffffffffffffffffffffffffffffffffffffff1916908160001a905350600a85612a8691906139e7565b94506129de565b8093505050505b919050565b6000808273ffffffffffffffffffffffffffffffffffffffff163b119050919050565b6040518060a0016040528060008152602001600073ffffffffffffffffffffffffffffffffffffffff168152602001600073ffffffffffffffffffffffffffffffffffffffff168152602001600081526020016000151581525090565b828054612b2590613b14565b90600052602060002090601f016020900481019282612b475760008555612b8e565b82601f10612b6057805160ff1916838001178555612b8e565b82800160010185558215612b8e579182015b82811115612b8d578251825591602001919060010190612b72565b5b509050612b9b9190612b9f565b5090565b5b80821115612bb8576000816000905550600101612ba0565b5090565b6000612bcf612bca846138b3565b61388e565b905082815260208101848484011115612be757600080fd5b612bf2848285613ad2565b509392505050565b6000612c0d612c08846138e4565b61388e565b905082815260208101848484011115612c2557600080fd5b612c30848285613ad2565b509392505050565b600081359050612c47816142ca565b92915050565b600081359050612c5c816142e1565b92915050565b600081359050612c71816142f8565b92915050565b600081519050612c86816142f8565b92915050565b600082601f830112612c9d57600080fd5b8135612cad848260208601612bbc565b91505092915050565b600082601f830112612cc757600080fd5b8135612cd7848260208601612bfa565b91505092915050565b600081359050612cef8161430f565b92915050565b600060208284031215612d0757600080fd5b6000612d1584828501612c38565b91505092915050565b60008060408385031215612d3157600080fd5b6000612d3f85828601612c38565b9250506020612d5085828601612c38565b9150509250929050565b600080600060608486031215612d6f57600080fd5b6000612d7d86828701612c38565b9350506020612d8e86828701612c38565b9250506040612d9f86828701612ce0565b9150509250925092565b60008060008060808587031215612dbf57600080fd5b6000612dcd87828801612c38565b9450506020612dde87828801612c38565b9350506040612def87828801612ce0565b925050606085013567ffffffffffffffff811115612e0c57600080fd5b612e1887828801612c8c565b91505092959194509250565b60008060408385031215612e3757600080fd5b6000612e4585828601612c38565b9250506020612e5685828601612c4d565b9150509250929050565b60008060408385031215612e7357600080fd5b6000612e8185828601612c38565b9250506020612e9285828601612ce0565b9150509250929050565b600060208284031215612eae57600080fd5b6000612ebc84828501612c62565b91505092915050565b600060208284031215612ed757600080fd5b6000612ee584828501612c77565b91505092915050565b60008060408385031215612f0157600080fd5b600083013567ffffffffffffffff811115612f1b57600080fd5b612f2785828601612cb6565b9250506020612f3885828601612ce0565b9150509250929050565b600060208284031215612f5457600080fd5b6000612f6284828501612ce0565b91505092915050565b60008060408385031215612f7e57600080fd5b6000612f8c85828601612ce0565b9250506020612f9d85828601612ce0565b9150509250929050565b6000612fb383836133fe565b60a08301905092915050565b612fc881613a5e565b82525050565b612fd781613a4c565b82525050565b6000612fe882613925565b612ff28185613953565b9350612ffd83613915565b8060005b8381101561302e5781516130158882612fa7565b975061302083613946565b925050600181019050613001565b5085935050505092915050565b61304481613a70565b82525050565b61305381613a70565b82525050565b600061306482613930565b61306e8185613964565b935061307e818560208601613ae1565b61308781613cad565b840191505092915050565b600061309d8261393b565b6130a78185613975565b93506130b7818560208601613ae1565b6130c081613cad565b840191505092915050565b60006130d68261393b565b6130e08185613986565b93506130f0818560208601613ae1565b80840191505092915050565b6000613109601b83613975565b915061311482613cbe565b602082019050919050565b600061312c603283613975565b915061313782613ce7565b604082019050919050565b600061314f602583613975565b915061315a82613d36565b604082019050919050565b6000613172603383613975565b915061317d82613d85565b604082019050919050565b6000613195601c83613975565b91506131a082613dd4565b602082019050919050565b60006131b8602483613975565b91506131c382613dfd565b604082019050919050565b60006131db601983613975565b91506131e682613e4c565b602082019050919050565b60006131fe602c83613975565b915061320982613e75565b604082019050919050565b6000613221603683613975565b915061322c82613ec4565b604082019050919050565b6000613244603883613975565b915061324f82613f13565b604082019050919050565b6000613267602a83613975565b915061327282613f62565b604082019050919050565b600061328a602983613975565b915061329582613fb1565b604082019050919050565b60006132ad602e83613975565b91506132b882614000565b604082019050919050565b60006132d0602083613975565b91506132db8261404f565b602082019050919050565b60006132f3603183613975565b91506132fe82614078565b604082019050919050565b6000613316602c83613975565b9150613321826140c7565b604082019050919050565b6000613339602f83613975565b915061334482614116565b604082019050919050565b600061335c602183613975565b915061336782614165565b604082019050919050565b600061337f601883613975565b915061338a826141b4565b602082019050919050565b60006133a2602483613975565b91506133ad826141dd565b604082019050919050565b60006133c5603183613975565b91506133d08261422c565b604082019050919050565b60006133e8602a83613975565b91506133f38261427b565b604082019050919050565b60a0820160008201516134146000850182613466565b5060208201516134276020850182612fbf565b50604082015161343a6040850182612fbf565b50606082015161344d6060850182613466565b506080820151613460608085018261303b565b50505050565b61346f81613ac8565b82525050565b61347e81613ac8565b82525050565b600061349082856130cb565b915061349c82846130cb565b91508190509392505050565b60006020820190506134bd6000830184612fce565b92915050565b60006080820190506134d86000830187612fce565b6134e56020830186612fce565b6134f26040830185613475565b6134ff606083018461304a565b95945050505050565b600060808201905061351d6000830187612fce565b61352a6020830186612fce565b6135376040830185613475565b81810360608301526135498184613059565b905095945050505050565b6000602082019050818103600083015261356e8184612fdd565b905092915050565b600060208201905061358b600083018461304a565b92915050565b600060208201905081810360008301526135ab8184613092565b905092915050565b600060208201905081810360008301526135cc816130fc565b9050919050565b600060208201905081810360008301526135ec8161311f565b9050919050565b6000602082019050818103600083015261360c81613142565b9050919050565b6000602082019050818103600083015261362c81613165565b9050919050565b6000602082019050818103600083015261364c81613188565b9050919050565b6000602082019050818103600083015261366c816131ab565b9050919050565b6000602082019050818103600083015261368c816131ce565b9050919050565b600060208201905081810360008301526136ac816131f1565b9050919050565b600060208201905081810360008301526136cc81613214565b9050919050565b600060208201905081810360008301526136ec81613237565b9050919050565b6000602082019050818103600083015261370c8161325a565b9050919050565b6000602082019050818103600083015261372c8161327d565b9050919050565b6000602082019050818103600083015261374c816132a0565b9050919050565b6000602082019050818103600083015261376c816132c3565b9050919050565b6000602082019050818103600083015261378c816132e6565b9050919050565b600060208201905081810360008301526137ac81613309565b9050919050565b600060208201905081810360008301526137cc8161332c565b9050919050565b600060208201905081810360008301526137ec8161334f565b9050919050565b6000602082019050818103600083015261380c81613372565b9050919050565b6000602082019050818103600083015261382c81613395565b9050919050565b6000602082019050818103600083015261384c816133b8565b9050919050565b6000602082019050818103600083015261386c816133db565b9050919050565b60006020820190506138886000830184613475565b92915050565b60006138986138a9565b90506138a48282613b46565b919050565b6000604051905090565b600067ffffffffffffffff8211156138ce576138cd613c7e565b5b6138d782613cad565b9050602081019050919050565b600067ffffffffffffffff8211156138ff576138fe613c7e565b5b61390882613cad565b9050602081019050919050565b6000819050602082019050919050565b600081519050919050565b600081519050919050565b600081519050919050565b6000602082019050919050565b600082825260208201905092915050565b600082825260208201905092915050565b600082825260208201905092915050565b600081905092915050565b600061399c82613ac8565b91506139a783613ac8565b9250827fffffffffffffffffffffffffffffffffffffffffffffffffffffffffffffffff038211156139dc576139db613bf1565b5b828201905092915050565b60006139f282613ac8565b91506139fd83613ac8565b925082613a0d57613a0c613c20565b5b828204905092915050565b6000613a2382613ac8565b9150613a2e83613ac8565b925082821015613a4157613a40613bf1565b5b828203905092915050565b6000613a5782613aa8565b9050919050565b6000613a6982613aa8565b9050919050565b60008115159050919050565b60007fffffffff0000000000000000000000000000000000000000000000000000000082169050919050565b600073ffffffffffffffffffffffffffffffffffffffff82169050919050565b6000819050919050565b82818337600083830152505050565b60005b83811015613aff578082015181840152602081019050613ae4565b83811115613b0e576000848401525b50505050565b60006002820490506001821680613b2c57607f821691505b60208210811415613b4057613b3f613c4f565b5b50919050565b613b4f82613cad565b810181811067ffffffffffffffff82111715613b6e57613b6d613c7e565b5b80604052505050565b6000613b8282613ac8565b91507fffffffffffffffffffffffffffffffffffffffffffffffffffffffffffffffff821415613bb557613bb4613bf1565b5b600182019050919050565b6000613bcb82613ac8565b9150613bd683613ac8565b925082613be657613be5613c20565b5b828206905092915050565b7f4e487b7100000000000000000000000000000000000000000000000000000000600052601160045260246000fd5b7f4e487b7100000000000000000000000000000000000000000000000000000000600052601260045260246000fd5b7f4e487b7100000000000000000000000000000000000000000000000000000000600052602260045260246000fd5b7f4e487b7100000000000000000000000000000000000000000000000000000000600052604160045260246000fd5b6000601f19601f8301169050919050565b7f436f756e7465723a2064656372656d656e74206f766572666c6f770000000000600082015250565b7f4552433732313a207472616e7366657220746f206e6f6e20455243373231526560008201527f63656976657220696d706c656d656e7465720000000000000000000000000000602082015250565b7f4552433732313a207472616e736665722066726f6d20696e636f72726563742060008201527f6f776e6572000000000000000000000000000000000000000000000000000000602082015250565b7f6f6e6c79206d61726b6574706c616365206f776e65722063616e20757064617460008201527f6520746865206c697374696e6720707269636500000000000000000000000000602082015250565b7f4552433732313a20746f6b656e20616c7265616479206d696e74656400000000600082015250565b7f4552433732313a207472616e7366657220746f20746865207a65726f2061646460008201527f7265737300000000000000000000000000000000000000000000000000000000602082015250565b7f4552433732313a20617070726f766520746f2063616c6c657200000000000000600082015250565b7f4552433732313a206f70657261746f7220717565727920666f72206e6f6e657860008201527f697374656e7420746f6b656e0000000000000000000000000000000000000000602082015250565b7f706c65617365207375626d697420746f2061736b696e6720707269636520746f60008201527f20636f6d706c6574652074686520707572636861736500000000000000000000602082015250565b7f4552433732313a20617070726f76652063616c6c6572206973206e6f74206f7760008201527f6e6572206e6f7220617070726f76656420666f7220616c6c0000000000000000602082015250565b7f4552433732313a2062616c616e636520717565727920666f7220746865207a6560008201527f726f206164647265737300000000000000000000000000000000000000000000602082015250565b7f4552433732313a206f776e657220717565727920666f72206e6f6e657869737460008201527f656e7420746f6b656e0000000000000000000000000000000000000000000000602082015250565b7f45524337323155524953746f726167653a2055524920736574206f66206e6f6e60008201527f6578697374656e7420746f6b656e000000000000000000000000000000000000602082015250565b7f4552433732313a206d696e7420746f20746865207a65726f2061646472657373600082015250565b7f45524337323155524953746f726167653a2055524920717565727920666f722060008201527f6e6f6e6578697374656e7420746f6b656e000000000000000000000000000000602082015250565b7f4552433732313a20617070726f76656420717565727920666f72206e6f6e657860008201527f697374656e7420746f6b656e0000000000000000000000000000000000000000602082015250565b7f4552433732314d657461646174613a2055524920717565727920666f72206e6f60008201527f6e6578697374656e7420746f6b656e0000000000000000000000000000000000602082015250565b7f4552433732313a20617070726f76616c20746f2063757272656e74206f776e6560008201527f7200000000000000000000000000000000000000000000000000000000000000602082015250565b7f7072696365206d757374206265206174206c6561737420310000000000000000600082015250565b7f5072696365206d75737420626520657175616c20746f206c697374696e67207060008201527f7269636500000000000000000000000000000000000000000000000000000000602082015250565b7f4552433732313a207472616e736665722063616c6c6572206973206e6f74206f60008201527f776e6572206e6f7220617070726f766564000000000000000000000000000000602082015250565b7f6f6e6c79206974656d206f776e65722063616e20706572666f726d207468697360008201527f206f7065726174696f6e00000000000000000000000000000000000000000000602082015250565b6142d381613a4c565b81146142de57600080fd5b50565b6142ea81613a70565b81146142f557600080fd5b50565b61430181613a7c565b811461430c57600080fd5b50565b61431881613ac8565b811461432357600080fd5b5056fea26469706673582212209e91d0bb4ec1e28ae0dc1f81508ab71f0cb3fd0301c897a6a28a565eff95938864736f6c63430008040033",
  "devdoc": {
    "kind": "dev",
    "methods": {
      "approve(address,uint256)": {
        "details": "See {IERC721-approve}."
      },
      "balanceOf(address)": {
        "details": "See {IERC721-balanceOf}."
      },
      "getApproved(uint256)": {
        "details": "See {IERC721-getApproved}."
      },
      "isApprovedForAll(address,address)": {
        "details": "See {IERC721-isApprovedForAll}."
      },
      "name()": {
        "details": "See {IERC721Metadata-name}."
      },
      "ownerOf(uint256)": {
        "details": "See {IERC721-ownerOf}."
      },
      "safeTransferFrom(address,address,uint256)": {
        "details": "See {IERC721-safeTransferFrom}."
      },
      "safeTransferFrom(address,address,uint256,bytes)": {
        "details": "See {IERC721-safeTransferFrom}."
      },
      "setApprovalForAll(address,bool)": {
        "details": "See {IERC721-setApprovalForAll}."
      },
      "supportsInterface(bytes4)": {
        "details": "See {IERC165-supportsInterface}."
      },
      "symbol()": {
        "details": "See {IERC721Metadata-symbol}."
      },
      "tokenURI(uint256)": {
        "details": "See {IERC721Metadata-tokenURI}."
      },
      "transferFrom(address,address,uint256)": {
        "details": "See {IERC721-transferFrom}."
      }
    },
    "version": 1
  },
  "userdoc": {
    "kind": "user",
    "methods": {},
    "version": 1
  },
  "storageLayout": {
    "storage": [
      {
        "astId": 25,
        "contract": "contracts/NFTMarketplace.sol:NFTMarketplace",
        "label": "_name",
        "offset": 0,
        "slot": "0",
        "type": "t_string_storage"
      },
      {
        "astId": 27,
        "contract": "contracts/NFTMarketplace.sol:NFTMarketplace",
        "label": "_symbol",
        "offset": 0,
        "slot": "1",
        "type": "t_string_storage"
      },
      {
        "astId": 31,
        "contract": "contracts/NFTMarketplace.sol:NFTMarketplace",
        "label": "_owners",
        "offset": 0,
        "slot": "2",
        "type": "t_mapping(t_uint256,t_address)"
      },
      {
        "astId": 35,
        "contract": "contracts/NFTMarketplace.sol:NFTMarketplace",
        "label": "_balances",
        "offset": 0,
        "slot": "3",
        "type": "t_mapping(t_address,t_uint256)"
      },
      {
        "astId": 39,
        "contract": "contracts/NFTMarketplace.sol:NFTMarketplace",
        "label": "_tokenApprovals",
        "offset": 0,
        "slot": "4",
        "type": "t_mapping(t_uint256,t_address)"
      },
      {
        "astId": 45,
        "contract": "contracts/NFTMarketplace.sol:NFTMarketplace",
        "label": "_operatorApprovals",
        "offset": 0,
        "slot": "5",
        "type": "t_mapping(t_address,t_mapping(t_address,t_bool))"
      },
      {
        "astId": 1012,
        "contract": "contracts/NFTMarketplace.sol:NFTMarketplace",
        "label": "_tokenURIs",
        "offset": 0,
        "slot": "6",
        "type": "t_mapping(t_uint256,t_string_storage)"
      },
      {
        "astId": 1799,
        "contract": "contracts/NFTMarketplace.sol:NFTMarketplace",
        "label": "_tokenIds",
        "offset": 0,
        "slot": "7",
        "type": "t_struct(Counter)1477_storage"
      },
      {
        "astId": 1802,
        "contract": "contracts/NFTMarketplace.sol:NFTMarketplace",
        "label": "_itemsSold",
        "offset": 0,
        "slot": "8",
        "type": "t_struct(Counter)1477_storage"
      },
      {
        "astId": 1805,
        "contract": "contracts/NFTMarketplace.sol:NFTMarketplace",
        "label": "listingPrice",
        "offset": 0,
        "slot": "9",
        "type": "t_uint256"
      },
      {
        "astId": 1807,
        "contract": "contracts/NFTMarketplace.sol:NFTMarketplace",
        "label": "owner",
        "offset": 0,
        "slot": "10",
        "type": "t_address_payable"
      },
      {
        "astId": 1812,
        "contract": "contracts/NFTMarketplace.sol:NFTMarketplace",
        "label": "idToMarketItem",
        "offset": 0,
        "slot": "11",
        "type": "t_mapping(t_uint256,t_struct(MarketItem)1823_storage)"
      }
    ],
    "types": {
      "t_address": {
        "encoding": "inplace",
        "label": "address",
        "numberOfBytes": "20"
      },
      "t_address_payable": {
        "encoding": "inplace",
        "label": "address payable",
        "numberOfBytes": "20"
      },
      "t_bool": {
        "encoding": "inplace",
        "label": "bool",
        "numberOfBytes": "1"
      },
      "t_mapping(t_address,t_bool)": {
        "encoding": "mapping",
        "key": "t_address",
        "label": "mapping(address => bool)",
        "numberOfBytes": "32",
        "value": "t_bool"
      },
      "t_mapping(t_address,t_mapping(t_address,t_bool))": {
        "encoding": "mapping",
        "key": "t_address",
        "label": "mapping(address => mapping(address => bool))",
        "numberOfBytes": "32",
        "value": "t_mapping(t_address,t_bool)"
      },
      "t_mapping(t_address,t_uint256)": {
        "encoding": "mapping",
        "key": "t_address",
        "label": "mapping(address => uint256)",
        "numberOfBytes": "32",
        "value": "t_uint256"
      },
      "t_mapping(t_uint256,t_address)": {
        "encoding": "mapping",
        "key": "t_uint256",
        "label": "mapping(uint256 => address)",
        "numberOfBytes": "32",
        "value": "t_address"
      },
      "t_mapping(t_uint256,t_string_storage)": {
        "encoding": "mapping",
        "key": "t_uint256",
        "label": "mapping(uint256 => string)",
        "numberOfBytes": "32",
        "value": "t_string_storage"
      },
      "t_mapping(t_uint256,t_struct(MarketItem)1823_storage)": {
        "encoding": "mapping",
        "key": "t_uint256",
        "label": "mapping(uint256 => struct NFTMarketplace.MarketItem)",
        "numberOfBytes": "32",
        "value": "t_struct(MarketItem)1823_storage"
      },
      "t_string_storage": {
        "encoding": "bytes",
        "label": "string",
        "numberOfBytes": "32"
      },
      "t_struct(Counter)1477_storage": {
        "encoding": "inplace",
        "label": "struct Counters.Counter",
        "members": [
          {
            "astId": 1476,
            "contract": "contracts/NFTMarketplace.sol:NFTMarketplace",
            "label": "_value",
            "offset": 0,
            "slot": "0",
            "type": "t_uint256"
          }
        ],
        "numberOfBytes": "32"
      },
      "t_struct(MarketItem)1823_storage": {
        "encoding": "inplace",
        "label": "struct NFTMarketplace.MarketItem",
        "members": [
          {
            "astId": 1814,
            "contract": "contracts/NFTMarketplace.sol:NFTMarketplace",
            "label": "tokenId",
            "offset": 0,
            "slot": "0",
            "type": "t_uint256"
          },
          {
            "astId": 1816,
            "contract": "contracts/NFTMarketplace.sol:NFTMarketplace",
            "label": "seller",
            "offset": 0,
            "slot": "1",
            "type": "t_address_payable"
          },
          {
            "astId": 1818,
            "contract": "contracts/NFTMarketplace.sol:NFTMarketplace",
            "label": "owner",
            "offset": 0,
            "slot": "2",
            "type": "t_address_payable"
          },
          {
            "astId": 1820,
            "contract": "contracts/NFTMarketplace.sol:NFTMarketplace",
            "label": "price",
            "offset": 0,
            "slot": "3",
            "type": "t_uint256"
          },
          {
            "astId": 1822,
            "contract": "contracts/NFTMarketplace.sol:NFTMarketplace",
            "label": "sold",
            "offset": 0,
            "slot": "4",
            "type": "t_bool"
          }
        ],
        "numberOfBytes": "160"
      },
      "t_uint256": {
        "encoding": "inplace",
        "label": "uint256",
        "numberOfBytes": "32"
      }
    }
  }
}